:020000041000EA
:1000000000B5324B212058609868022188439860DF
:10001000D860186158612E4B002199600221596106
:100020000121F02299502B49196001219960352056
:1000300000F044F80222904214D00621196600F024
:1000400034F8196E01211966002018661A6600F04E
:100050002CF8196E196E196E052000F02FF8012189
:100060000842F9D1002199601B49196000215960AB
:100070001A491B48016001219960EB211966A021F2
:10008000196600F012F800219960164914480160C1
:100090000121996001BC002800D000471248134993
:1000A000086003C880F30888084703B5996A0420EC
:1000B0000142FBD001200142F8D103BD02B5186610
:1000C0001866FFF7F2FF186E186E02BD00000240BE
:1000D000000000180000070000035F00212200005C
:1000E000F4000018222000A00001001008ED00E03C
:1000F00000000000000000000000000074B24E7A12
:10010000006E0320C10100108DDD00101D400110A4
:1001100000000000000000000000000000000000DF
:100120000000000000000000000000008DDD001055
:1001300000000000000000008DDD00108DDD0010CB
:1001400055E6001049E600103DE60010C9E5001034
:100150008DDD001025CF00108DDD00108DDD00102D
:100160008DDD00108DDD00108DDD0010D5E6001056
:100170008DDD001061E600108DDD00108DDD0010BA
:10018000516E03208DDD00108DDD00108DDD00101F
:1001900085CD00108DDD00108DDD00108DDD00108F
:1001A0008DDD00108DDD00108DDD00108DDD001067
:1001B0008DDD00108DDD00108DDD00108DDD001057
:1001C0000EF0E8F9084809490022814201D004C034
:1001D000FBE707480749084A814202D008CA08C01D
:1001E000FAE70CF091FE00DE406F032000FC0320D4
:1001F000006E0320406F03202873011001468268BF
:100200000020002A08D0521E8A600CC908399A4280
:1002100002D0901C08601046704780B500AF01699D
:10022000002911D0491E01618268511C8160C1689A
:1002300043695918491CC16003684168184609F0B0
:100240004BFC0146012080BD002080BDF0B503AF0E
:10025000FFB0FCB00E4601210A0214924A03199223
:100260000A040F921B91490415900568287A2A46C2
:1002700020321C922A464A321D922A4670321F9220
:100280002A4690321192002823962095109118D07A
:10029000032819D128460C301290284614301690A5
:1002A000287D1C9C4000C0467844808840008744DC
:1002B00005009A00CE17D100E6001B0012980068D6
:1002C000A6E0286868609AE02C461434287D400037
:1002D0007844808840008744AE000400BA17E806DE
:1002E000F7061F480DF040FD22461632A07D800023
:1002F00001A108581D9987460D030010ED03001059
:100300004F3200104303001017030010AE69E96973
:100310002C6A1C98E1E008461E301A90887F1E92D5
:100320004000C0467844808840008744070065004C
:100330009017E50229003800CD05E5022E6D1D9CC1
:1003400063E11E920878400078448088400087442A
:10035000040050007E170900F205AE6BEEE0C046C7
:100360009C4601101F9EF07D3146173122910028D6
:1003700024D0032801D100F028FFF3480DF0F4FC4D
:10038000119DE87C1F99183113912C4613340028D5
:100390001CD0032800D145E2EC480DF0E5FC1F9B82
:1003A000997C28466C301C461234002917D003294A
:1003B00001D100F06FFDE6480DF0D6FC717E347E71
:1003C000686F2190AB6F229A00F0C3FE1894697D8C
:1003D0002A7D2E686B68E86817901F98FDE11A7CEB
:1003E000E96F00F053FDDB480DF0BEFCDA480DF07C
:1003F000BBFCDA480DF0B8FCD9480DF0B5FC002183
:100400002975E86029461431169129460C3112915C
:100410002861FA21415C002911D0012028750020B3
:1004200028756868E86028461530A6A9172213F0D9
:100430000CFD2C461434E868286100F02DFE0021E4
:1004400029771C9C21720146B631296201210902DB
:100450004018A861316820460CF052F9C0B2052856
:1004600007D1287F002810D0032811D0BD480DF0F7
:100470007BFC00216170207028690830E861284603
:10048000183003F02DFD00F079FEB7480F99016098
:10049000306806C8B5480EF073F9B548006D10997C
:1004A000084200D193E30024A794A694A6AA0E467E
:1004B000082120460B4603F0FFFAAD480665AD481B
:1004C00004604460A699A79A1C98847514462E6906
:1004D000AE61E9612A62024616321E926962AC621E
:1004E0000A0A8274EC850A0CAA850A06D20F4275A4
:1004F0004B069B0F03751F230B40042B00D30423D3
:10050000C374200C288629462C31002A62D0A6A864
:10051000021D18C918C20988118065A90A4638C881
:1005200038C200881080209DAE6328463C301CC92C
:100530001CC000221D9B1A7009880180EE634035A3
:1005400024AA114618CD18C128880880117AD079BC
:1005500018CE92881A92083E02292193229400D143
:10056000B3E0002900D0B3E0002800D11AE201284E
:1005700000D1F2E1022800D0AAE024A88079002866
:1005800001D000F0CFFC022124A80D464056802166
:10059000002800D484210007400E081876494058EE
:1005A0001890764B2846219C2146229E324603F025
:1005B000D1F9189A1205D30FA6AA1380704B009395
:1005C0002B4612F04FFE2346012E00D99CE002205C
:1005D0006C4AE6E2A6AD28460A300A2213F035FC42
:1005E00024A8229014242946224613F02EFC209D94
:1005F0002E65284654302299224613F026FC00200E
:100600001D9CA07720461E301A902E642846543038
:1006100029465E310A2213F018FC00224021E089AD
:100620002B46443307C3746884420ED256480DF0FB
:1006300038FC686C0DF012FC20460DF00FFC0DF03C
:1006400003FD00200121090251E131684F4B229244
:10065000224603F07FF902460C46AB6C4C480090F2
:10066000A6AD28460830114622460BF0E1FE65A8EB
:10067000219014262946209D324613F0E6FB1F9C4C
:1006800020462199324613F0E0FB229A0120207582
:1006900020460026EE662C6F696F2291002A06D153
:1006A000209878300CF094FA04461F982291002C80
:1006B00008D0027D0675209DE86E0128219269D13F
:1006C000286F70E0209DE86CE4E0002800D12FE165
:1006D000F06E2C36C500002D01D100F023FC3168EE
:1006E0007068C46A22980090A6A824AAA047A69879
:1006F000002803D1083D0836219BECE7A89DA79B65
:10070000002B01D100F00EFC4020209E306600201E
:1007100004467065B3650120F0641F9908701A9A49
:100720009542294600D31146F1659542234600D3F0
:1007300018463F2211404A424A410240326518465B
:100740001D9A00F0D0FCC0461C5A01102C5A011012
:10075000DC590110CC460110AC460110BC4601101A
:10076000FC460110EC590110902011501CF103209F
:10077000000011508000105000001050CC450110B6
:10078000DC450110EC4501102C000000DC46011096
:10079000EC460110284678300CF01AFA0122EA667D
:1007A000219A28676967119B1A75DE741C602646BA
:1007B000229C5C60414241415975012000022A6C33
:1007C0001D46234610181790E8601F9802461832FD
:1007D00013922A4613321892219A8661C361697472
:1007E0002A74B94B181DA8605868199C20404142D2
:1007F0004141A974179E3188B44A114001436140B8
:1008000059600C2012F041FD3088B04908400918A9
:100810000819AA7C002A239E189C00D10846401C77
:10082000A9680860306806C8A9480DF0A9FFA64865
:100830004568A649481C054200D06CE10D401F9850
:10084000C269AA420BD201202070A2480DF029FBF8
:1008500000200BF053FE0DF0F7FB209D2BE31398C7
:1008600001689D4B284603F075F802460B4640216F
:10087000149803F021F9012020702099C86C4019C8
:10088000C8648A6C954201D20D4603E04A6C9042DE
:100890000D465FD12C6C6168884200D9DFE3216886
:1008A0002191A9632290E8632846543065A90A463D
:1008B00048C848C200881080087A002821D0E06E1D
:1008C0002C34C600002E00D10EE103CC083C254696
:1008D0008C6A65A9219A229BA0472C46C1B2083E8A
:1008E00008340229EED0C00700D1BBE2FCE02A6C3C
:1008F0005118E9662867239E28466C300CF08EF864
:10090000D9E265A8C079002800D1CBE0012860D0E9
:100910000228D4D165A988790988012800D1FFE08F
:10092000032800D0E0E000291B9800D0DCE0FAE0CA
:10093000756F002D00D1CBE63146783124A80978B7
:1009400082798A4200D0C3E64088072800D0BFE6FB
:10095000336FD9E6EA6E1F989BE624A84088B16AF7
:10096000814200D8DEE224A989790A2900D131E147
:100970000029229C00D0ABE60225584B284621993D
:10098000224602F0E7FFA6AA00231380544B0093EF
:100990002B4612F067FC219B012C00D9B4E6022003
:1009A000504AFEE03046F93024A98979002900D167
:1009B000DCE0062900D1C7E0082900D0B2E2229984
:1009C000002900D154E30078001F414241411970D1
:1009D00009E165A88678710063181833A16AB142ED
:1009E00000D80023B14200D87EE080790B2800D0E7
:1009F0007AE0587865A90A88D1B2884200D8D3E055
:100A0000229218931A70A068E168EF91EE90204648
:100A1000B630179000252195A6A8EEA90EF04EF944
:100A2000A698012800D0C3E0A899002938D0A6A82C
:100A30000079A99AF592F491022822D0042815D0C1
:100A40000528E9D1F4A80EF001F9C00728D1E8B2D1
:100A5000B042E1D12198C0B2189A1278101A4242DD
:100A6000424117980BF0F4FD3546D5E7F4A80EF097
:100A7000EDF8C00714D10D46F4A80EF0E7F8219167
:100A80000CE0F4A80EF004F9000409D1F4A80EF06B
:100A9000DDF8C00704D1F4A80EF0D8F8C007BBD029
:100AA000CD4875E165A88179491E08291CD82546DD
:100AB000F83500887944097949008F441A15AD1535
:100AC00096151515C000C04680001050FF030000A9
:100AD0001CF103202D0000003C5A01108C45011030
:100AE0009C450110AC450110002001210902209D08
:100AF000FDE60128F8D10020E870E06E2C34C50036
:100B0000002D00D1AEE103CC0A6A0021083C9047D9
:100B1000083D0834F4E7032020700420209DE5E11F
:100B200000200029E0D165A98A780F21114055B233
:100B300000D1E2E0A94A002D00D4A94A8023002D6B
:100B400000D580E184237EE124A80288100A0128D0
:100B500000D16EE1022800D12EE1032800D12EE160
:100B60000F2800D0DEE133697569CDE58678C57858
:100B7000022019469B4B1890224602F0EBFEAB1C5C
:100B8000002E00D12B46A6AA1380974B0093189DE8
:100B90002B4612F067FB012C219B00D9B4E5022003
:100BA000924A22990CF0CCFB91480DF085F99BE715
:100BB000E06E2C34C500002D00D153E103CC4B6A0C
:100BC0003146229A083C9847083D0834F3E7032051
:100BD000287725E32299002900D14CE24000301803
:100BE00018300078187001258EE5411E7F2900D34A
:100BF0007AE701216971287003206870E06E2C3457
:100C0000C600002E00D12DE1297805CC5269083CA0
:100C10009047083E0834F4E7012800D064E701203B
:100C2000E870E06E2C34C500002D00D11AE103CC31
:100C30000A6A1B99083C9047083D0834F4E70028ED
:100C40006AD0012800D04FE704206870A068E168EE
:100C5000EF91EE902046183021902046B630189043
:100C6000A06A229000263546A6A8EEA90EF026F826
:100C7000A698012800D092E0A89900293BD0A6A808
:100C80000079A99AF592F491022825D0042816D06B
:100C90000528E9D1F4A80DF0D9FFC0072BD1E8B29F
:100CA000229A824200D8DFE14000219A105CF2B221
:100CB000801A4242424118980BF0CAFCD4E7F4A8CB
:100CC0000DF0C4FFC00716D10D46F4A80DF0BEFF0D
:100CD000C00710D10E46C7E7F4A80DF0D9FF0004F5
:100CE00009D1F4A80DF0B2FFC00704D1F4A80DF0AB
:100CF000ADFFC007B8D03F484AE03F4EB46E002D6C
:100D000000D59AE0421E034693415A0002239C43B9
:100D10001443334A842395E06878022800D1A1E087
:100D200003206870A068E168EF91EE902546B63523
:100D3000A6A8EEA90DF0C2FFA698012800D0DAE01F
:100D4000A899002923D0A6A80079A99AF592F49130
:100D500002280DD0042810D00528E9D1F4A80DF000
:100D600075FFC00713D1002228460BF071FCDFE7A6
:100D7000F4A80DF08DFF000409D1F4A80DF066FF72
:100D8000C00704D1F4A80DF061FFC007D0D01B4804
:100D900000901B482B21F4AA1A4B0CF035FFE06E93
:100DA0002C34C500002D5DD003CC8A691B99083C0A
:100DB0009047083D0834F5E7B368F568A4E4D1B27C
:100DC000032900D9BCE008367820742279440979D7
:100DD00049008F4419A29DA01C4601109CF00320DD
:100DE0001CF103204C4501105C4501106C450110BD
:100DF0002E000000FC450110000011500C460110AF
:100E0000C4560110F0560110002C219B00D137E18F
:100E100004251D70012C00D135E103205870022CEF
:100E200000D833E109209870032C00D131E1DD7046
:100E30006AE4A4361225334666E40122944324185A
:100E4000FD4A8023B466441EA041C002C900CB18ED
:100E5000FA4C1D590126F602B54305431D515018A1
:100E60000DF0B9FC01200102209D286C4118F830DA
:100E70004279002A239E23D0027800201F9B987479
:100E80001A74E96728466C301C461234E9665A74B5
:100E90000021197231680BF091FD002823D11F9AAF
:100EA000507C7F210140E948016001209074286C4A
:100EB000FD21002242541E9A1A99012008705BE11C
:100EC00000201F9A1072E966316828466C300BF0DA
:100ED00075FD062100281E9A1A9B00D10121197068
:100EE000002806D148E10320207005201A990870D7
:100EF0001E9A042092E1E06E2C34C500002DB1D082
:100F000003CC8A690021083C9047083D0834F5E786
:100F100080207C2201E0882084223158B458002CA3
:100F2000219B23D1002001210902209DEA6B511849
:100F3000E9642865239E28464C300BF06FFD17E1CD
:100F400024A840881890F06E2C36C500002DE9D0FA
:100F500003CE0B6B11461446189A083E984722465A
:100F6000219B083D08360028F0D00446229801282D
:100F700000D883E00320587060180E9002250020EE
:100F800013900246100405D02E461894139817901B
:100F900022983AE00E9884425ED02E460025605793
:100FA000C2B2002801D4641C2CE0114662783F20B4
:100FB000179002401F200840E02916D30D90A0781A
:100FC0001890179B189818401890920118981218AA
:100FD000F0290ED3E37817990B409101C9180D98A9
:100FE0004007C00A0A18241D07E080018218A41CCB
:100FF00008E00D9800031218E41CC7490F988242BC
:10100000219B1CD22298179518943146B61C864213
:1010100028D215460446C1480090084631461A4673
:1010200023460DF049FCA6AA1580BD4B0093022370
:1010300012F018F9219B179A3546189CA2E71894CC
:1010400010460840B74940181790FF2000041018B8
:10105000820AB54802439BE71D70FFF755FBB34A70
:101060000CF06EF9B24813E1B24A22990BF0C6FFB8
:101070000020B14A10E10020B04A0DE1B04807E17C
:101080000020B04A08E10120AF4A05E10220F64AFB
:1010900002E10320F54AFFE0FA21415C002919D062
:1010A00000211C9A1170B630A861316828461830AA
:1010B0000BF026FBC0B2052811D000211C9A5170FC
:1010C000107028690830E8612846183002F008FFDF
:1010D0002869E1E7012028756868FFF790F9032087
:1010E000207004209FE0002474664C36002805D14F
:1010F000304602F093FB1D9A0B460146002909D0A9
:101100001F9802780470209D686E0128219104D1F7
:10111000A86E0EE0239E209D2BE030461E462292B4
:1011200002F07CFB334601226A66229AA866E966D1
:1011300021996967AB671F9E3276F4754142414140
:101140007176012000021446EA6B101830613246B5
:10115000173271753475402B13D901201070CA48AD
:101160000CF09FFE00200BF0C9F90CF06DFF239EE0
:101170001D9A012010701E9A012010702869FFF737
:1011800048F9229240211498219A1C4602F0B0FCA2
:10119000BE4AEA6710681999084041424141B17559
:1011A0002194204305214903414011600C2012F095
:1011B0006CF8B17D0029199800D1084621990143A6
:1011C000212080020843E96F08602398006806C860
:1011D00019480DF0D5FA5048401CAC490968014245
:1011E0001D9A1F9814D1407D012809D11998A74C48
:1011F00060600C2012F049F81D9A0920800260609E
:101200000120229908702B4664330BCB2E466AE7E7
:101210000320229908701070239E1E9A10700520DA
:10122000169908700320287215984468207A04A142
:101230004000085A400087449CF0032000001050F2
:101240000B000A100A1029001E0091000000115026
:10125000206860608E48E060316802F083FAC1B2B5
:10126000022911D0607600212176010AA176000CB6
:10127000E0766068606131682046103008F07EFDDD
:10128000002872D004200AE0032008E0E068E3E7C9
:101290000CF012FE0CF01DFE01460BF0AFFE2072AA
:1012A0002120C100159A9268511816910101511818
:1012B00014916721C900511813911B21490151183C
:1012C0001291400116181120800110181990232046
:1012D000400110181890C52080002192101822900B
:1012E00040790921119149011F9100211E91C943A3
:1012F0001A911C964000C04678448088400087447C
:101300002500A60FA60F2A00D7011602D80040011B
:101310007A01AF0118014102FF0300007C46011071
:101320008C46011000DCFFFF00D8FFFF0C470110C6
:10133000650000002C4601107C450110BC450110E1
:10134000640000003C4601104C46011022980068E1
:101350002199086093E0229CA5682CE03168204622
:10136000103008F00BFD002823D13920C10060683F
:101370004258002A00D16DE74118521E0A6003212D
:10138000514340183321C900425C4018417809029A
:101390008918807800040818C1B20229E5D0607667
:1013A00000212176010AA176000CE0766068606178
:1013B000D4E7052073E70CF067FF2968002901D006
:1013C00002F05BF933496E1808341794C0B22090CC
:1013D00029461A9801C11D912C461434307A0021F7
:1013E000012804D128460C300DF0BFF9317A05CE22
:1013F000083E90421B9A00D10A46D1070DD0421CEC
:101400000021042A0B4600D013463360317241217B
:1014100089004143665C072E07D12398006806C8FF
:101420001D980DF087F9072606E06018411CFF2281
:10143000043224A812F009FD2868401C2860209876
:101440000CF04CFF072E00D1B9E121980671401D28
:10145000FF22043224A912F0F8FC062E0FD804A1B2
:1014600076008E5B7600B7445C4601106C46011036
:1014700017000A0007017300D20031006D01ED4D25
:10148000229CA56097E7C0462B000000800010500A
:10149000ECF10320240400002198006806C82523ED
:1014A000DB000838C018229B083307C300201399BB
:1014B0000870C720800021990918F4A808F0E2FA02
:1014C000F49C0C2C00D172E1F59D68E10320229E72
:1014D0003072219A51799479D37995682095D5689D
:1014E0001D95209DF5601D9D35617361B461F161AD
:1014F00058430C234B4319190818012109034018BC
:101500001C9C206010680AC861606321C9005118E2
:10151000189A12C21799116000215171A3602521F8
:10152000C90008384118199AD161083050601F98D5
:101530009060E34821990E1823980268F4A8314678
:1015400006F0F0FBF49C0C2C00D024E10A2137E1DA
:1015500021994879229C2071086806C80023129DB1
:101560006B73A160E260083801460831139A51613B
:101570001F999161D349221D2523DB00C01805C5A1
:10158000296023980268229C0834A6AD284621468B
:1015900006F0AEF928780828149D00D109E1412011
:1015A0008200A6A9284612F029F920460AF095FEE5
:1015B0002878012800D062E72198006806C8229D9B
:1015C0002B792B74149B5B68EB6001232B721C9EA0
:1015D00006C6291D2522D20008388218199B9A6157
:1015E000D961083018601F9858601E981899487281
:1015F000B44811C1083E23980268F4A8314606F0A9
:1016000091FBF49C0C2C00D0C5E00821D8E0AE483A
:101610000CF052FCAD48219D28182C6821682091BF
:10162000666801210A0224A912F00FFC0420179B0E
:1016300018701C98209942C0083806466320C000E4
:1016400028182521C9006118199A9161D0610834C0
:1016500014601F9850600020189948729C4809C176
:1016600023980268F4A8314606F05CFBF49C0C2C2D
:1016700000D090E01199A3E0219CA0681699086021
:10168000206806C80023129D6B73229B9960DA6064
:10169000083801460831139A51611F9991618949AF
:1016A0006322D200A2182523DB00C01805C52960DB
:1016B00023980268229C083465AD2846214606F02E
:1016C00017F928780828169D209474D0281D4121E8
:1016D0008A0065A912F092F820460AF0FEFD2879EA
:1016E000012800D0CBE6219E306806C8169C237BDB
:1016F000229D2B742368EB6001232B721C9B06C375
:101700006321C9007118083B1E462522D200083803
:101710008218199B9A61D961083018601F98586027
:101720001E98189948726748086020984860239866
:101730000268F4A8314606F0F5FAF49C0C2C2AD184
:1017400005213DE0219D286806C86B79229C6372C3
:10175000052323721C9E06C66321C9006918252231
:10176000D20008388218199B9A61D9610830186034
:101770001F985860002018994872E148086017982F
:101780004860083E23980268F4A8314606F0CAFA79
:10179000F49C0C2C11D0F59D30460AF0B3FD0B2CB7
:1017A00000D16CE62046294608F032FA67E60621A9
:1017B00006E0072104E0042102E00B2100E0032100
:1017C000229841715F2080001599CB6818181290FB
:1017D000184620301C901D466435184684301D90F4
:1017E0001846A43020901E46C4361846E430219096
:1017F000187C22931F9519964000C0467844808833
:10180000400087440500240D240D0A00AE08D308CB
:101810001C6858689C60D860A4E028784000C046E6
:10182000784480884000874407008800120D5A00E1
:1018300039000A00F4F3032058699C6996E0219965
:10184000087A0A460832002860D0032800D077E0E2
:101850000879002861D0032800D077E008780028B4
:1018600063D0032801D001F0ECFC169220980146C9
:101870000D311791407B02A14000085A4000874477
:101880000400E30CE60C2D08480820990B681D980D
:10189000C06918908E68179800F0FCFE287C2946D5
:1018A00010311491239E4000784480884000874482
:1018B00011005300CE0C5205A606BB023502C046ED
:1018C00024040000C0510110130000001D0300009B
:1018D000CC510110DE6E186F1890149DFDE0307E23
:1018E000314618310028189113D003282BD1307DB0
:1018F000324614321792002813D0032829D1307CA5
:101900001036002815D0032829D187E0DD6E00F0BD
:1019100094FE9C6ED86E196F3BE01E6F5D6F00F0F9
:1019200091FE5C6F986FD96F3BE09E6FDD6F00F0AA
:101930008EFE1D9B03CBEC6939E0A4480CF014FA31
:10194000A3480CF011FAA3480CF00EFAA2480CF0D0
:101950000BFAA2480CF008FAA1480CF005FAA148CD
:101960000CF002FA58619C6100212970D8611C6258
:1019700018462430402112F02AFA229B20211846D2
:1019800044309C66D8661967002232763246183297
:1019900018925C679867D967002232753246143214
:1019A00017921D9B03C3EC61002232741036083B72
:1019B0009C60D86019611F2901D801F0B6F8208910
:1019C000586120680068BFF35F8FD8619861DA685A
:1019D0001D461B698449009120210CF06DFF0246D1
:1019E0000C466B6981480090A6AD284611462246F8
:1019F0000AF01EFD209C20460ECD0EC020460BF0A6
:101A0000E7F8002840D00022199B1A731D9A9268AB
:101A1000121DE26020616161229B1F9D2398026874
:101A20001946B03165AC204601F0A0FF20780228AD
:101A30001D9B00D15CE365A9C00715D04878996863
:101A40000968BFF35F8F1E9A0A6001213170179AEF
:101A50001170189A1170C007800F022444400028AA
:101A6000199E20D000F096FF6699D8694018D86179
:101A70005A69914201D3202863D198680068BFF366
:101A80005F8F1E99016001E01F9D1D9B9869D969B8
:101A900000299CD00124347017990C7018990C708F
:101AA0000028199E05D0C6480CF0FBF9204600F02E
:101AB0006DFF229CE06902681C990E1DA066E66617
:101AC000189222670020287420467530FF221C32AD
:101AD000A6A912F0BAF9234610352022B45C986EFC
:101AE0001690304620361790314612F0AEF9601E3F
:101AF000142814952CD803A14000085A40008744AC
:101B0000C45101101600F4019B01A50120016002DF
:101B10009102F201EF028801ED021B0181016202D4
:101B20007700A301610003029302F1025E0201212A
:101B30000322A44B17980AF065FC09220AF000FD65
:101B4000F8E099680968BFF35F8F0860209C55E74B
:101B5000FE2C00D062E270780D28229B00D925E38C
:101B6000169A14694000C046784480884000874433
:101B70000D009C0475041D031D03A6041D031D0315
:101B80001D03B3041D031D031D0393045068189027
:101B90009668002104258C4B179C20462A4611F09C
:101BA000AFFA062211F0B8FA0C22884B20462946DB
:101BB000149D11F0A5FA864A0092189A334611F046
:101BC00051FBB7E0022017994870B3E0D84F0110DD
:101BD000F05A0110E05A01109C470110BC47011057
:101BE000A84F01101C4701102C4701103C47011061
:101BF0007078B1780902081841BA1F9DE982F2781D
:101C00002A758918189100280CD116980068714916
:101C10000AF098FB0C460121090212F0D8F820685E
:101C2000401C20606C480CF03CF9E88A0FF07EFC08
:101C3000287D0FF06FFC0CF007FA68480CF031F9C2
:101C40001C2420460CF002F91798243021460CF091
:101C50001FFA0CF0F9F916980068179060490AF01D
:101C600071FB0C46E98A189A92B218925D4B0AF001
:101C7000BDFB16901391287D021D04215A4B30465E
:101C800011910AF0A0FB02460B46584800901698A6
:101C9000139911F0E7FA2068401C2060179C544902
:101CA00020460AF04FFB0D460026524B3146189A4B
:101CB0000AF074FB002907D000260278002A00D120
:101CC000761C401C491EF8D12868401C28601F98CB
:101CD000007D1C2802D3082E00D201E1464920468F
:101CE0000AF030FB02460D460120040265AE304684
:101CF0001146224611F082FD2868401C28601F987A
:101D000011990176229D28467D303146224612F0F7
:101D10009CF82B46394812994860239E18467C301F
:101D200031460AF0D7FF0028149D00D0DCE134488A
:101D30000CF0C2F8229B39E2082017994870FB4842
:101D4000F6E770781F9D2875B0786875F078A875EB
:101D500024201799085C243149780902081841BAEF
:101D6000298300BA010C2E461A3630460FF0AAFD20
:101D7000F2480CF096F8288B0FF0D8FB687DF04CF9
:101D8000A047A87DA047287DA047EE480CF072F838
:101D9000A87EC01FC0B2082800D3082002A14000BE
:101DA000085A40008744C0460900B103A703A903AD
:101DB000A503B303BF03AF03D2030020B0E3C046C3
:101DC0007E000000484E0110046C0110146C0110DC
:101DD000246C0110F84E01101F00000020000000CC
:101DE000084F0110184F0110284F0110384F0110F3
:101DF000484F0110584F0110684F0110F4F30320B1
:101E00002100000000201799887001204870CE48FA
:101E10008EE7CE480CF050F8C348129908600020B5
:101E20001F9D2875239E229B1846783031460AF064
:101E300051FF229B0521E9E37478A01FC0B2FB2863
:101E400000D35FE1C24857E0C24871E7F0781690CE
:101E5000B4787578C04918980AF074FA012D01D940
:101E600000F020FD042C01D300F021FD169E032E6E
:101E700001D300F021FD60226A4343239B00C05838
:101E80008018182262438018F200831818959D88E4
:101E9000DE8836047519EF95805A5A881204101896
:101EA000EE900868401C0860EEA80FF069FC06463A
:101EB000AA480BF0F6FF30460FF038FBA84D20463D
:101EC000A8471698A8471898A8470CF0BDF8042111
:101ED0000622A44B17980AF095FA32460AF030FB16
:101EE000229B00F0CBFCA04822E77478A01FC0B270
:101EF000FB2800D310E19D480BF0D3FF20460FF0E4
:101F000009FB0CF0A1F815E7F5787478B6789848D5
:101F10000BF0C7FF3002001900BA1190040C2046E4
:101F20000FF004FB28460FF0F5FA0CF08DF80420B2
:101F3000F390904918980AF015FA0A9169083091BF
:101F400000252D952995012224924322920086583E
:101F500025963046C030269024AA0029229B01D124
:101F600000F088FC10462430089010461C30169073
:101F70001046143009900C3213922F95491E012CF3
:101F800000D92EE1F3A8F590179EF49600202B902F
:101F9000259C002C00D13BE1269DAC4200D137E1CD
:101FA0002794603428942594F4A80A461699139B24
:101FB00001F080FE229B0128EFD000F05BFC6E4810
:101FC000B6E66E48B4E6F4781D2C27D270781490EB
:101FD000B678221D04216A4B17980AF013FA18905C
:101FE000179130021499401800BA1490169800689E
:101FF00064490AF0B7F90E461499090C0A19624BA4
:102000000AF0CCF902460B466048009018981799E0
:1020100011F028F93068401E30608BE6FF201799D8
:10202000087087E65A4883E67078B1780902081884
:10203000139041BAF0A811910180F6780424F1942C
:102040005449189D28460AF08DF9F2940320F39024
:102050000868401E0860504928460AF073F90E913E
:10206000432189004458309600252D952B952995BC
:1020700027952046C030269025940120109024906A
:1020800024A8002E229B00D1B7E3014630300D90EA
:10209000084624300C9008461C301890084614302E
:1020A0000B900C3116912F95139800281B9900D195
:1020B00051E32B951198411EC02D00D1B9E066194E
:1020C0002796603628961898169A01F0D5FD0028B4
:1020D00000D0CBE060356019229BEDE72F4827E662
:1020E0002F4825E62F4823E606202870229BF8E299
:1020F000032030701799087018990870239E229B4E
:1021000000F072FC022C1F9D00D111E1052C149DE2
:1021100000D00FE624480BE6601E05A1229B40007C
:10212000085A40008744C046F4F3032048000000EA
:102130004500E802F302E0024200C0461E00000033
:10214000151501108A00000049000000460000003B
:10215000800000004A000000884E01101D000000B1
:102160005DDE0010984E0110440000007F0000006A
:1021700022000000784F01104C00000042000000D7
:10218000B84E0110C84E0110D84E0110E84E011093
:1021900043000000884F0110984F011047000000D5
:1021A000450000004B0000004100000001202870A5
:1021B00032E20CF06FF918900D4602210622E04B36
:1021C00017980AF01FF906460C467D20C20000232E
:1021D00018982946149D11F007FF02463046214603
:1021E00091E207911198400C2B95411EC02D00D112
:1021F000B9E074192794603428941698139A01F062
:102200003BFD002800D0CBE060357019229BEDE744
:10221000002427942998002809D0F4A80A46169982
:10222000099B01F047FD229B012800D022E329945D
:1022300014E32590002427942998002806D01898A4
:102240000B9A01F019FD229B002810D129942B94A0
:102250002D98002806D008460C9909F0BAFE229B5A
:10226000002804D12D94002901D0C6E22596289A91
:102270002C9E2A981190269B2498109029981390B0
:10228000259C27982B9D002D09D00021B5420F9148
:1022900001D0294608312B91B54200D059E210995E
:1022A000C90734D006462546002E09D030461830DE
:1022B000964201D0014600E00021279196421ED1AE
:1022C000002D09D09D4209D027952A4660322892D8
:1022D000259214462E46E6E7002400E02C46139E85
:1022E000002E14D0314618310020119DAE42054613
:1022F00000D00D462995119DAE4202D107E02C4633
:10230000139935462B9618362C961391BBE72D98CA
:102310000028229B00D170E22E990022884201D031
:10232000024608322D9288421B9900D013E264E2E3
:1023300070793179B278F37802242C75814C129E31
:1023400034601B029A18090400064018801800BA6D
:10235000229BD867239E1846783031460AF0BAFC93
:10236000229B032152E125900024279429980028DC
:1023700006D01698099A01F07FFC229B002810D104
:1023800029942B942D98002806D00846089909F026
:1023900020FE229B002804D12D94002901D069E25F
:1023A0002594289A2C992A980F90269B24980E9071
:1023B0002998259D279E2B9C109406910B900592A1
:1023C00018953446049011900846039502963146BC
:1023D000109E0C931096002E03D0109E864200D0C3
:1023E0000FE20D900E98C00700D193E108462E46EB
:1023F000002808D001461831904201D00C4600E078
:102400000024904220D1002E08D09E4208D03246AF
:1024100060321892344615463046E8E7002500E061
:1024200035461198002860D006461836002103462C
:102430000F988342084600D0304610960B900F98B4
:10244000119E864204D150E03546119B10930646FA
:1024500030461830109B11930C9BBBE72220179E2F
:10246000305C4001314622314978490309188C42D9
:1024700000D89BE6D06840180A462032A24200D31A
:102480002246511A0022202A00D1F9E1835CB3547C
:10249000521C9142F7D14DE40020179A202800D118
:1024A00084E600211154401CF8E700210422264B49
:1024B000179810F025FE224610F02EFE3AE4002078
:1024C000179A202803D0FF211154401CF9E700205F
:1024D00050700120107069E60020179A202800D162
:1024E00064E6FF211154401CF8E70D980B99189BE6
:1024F00015E1042002E0022000E003200BF0C8FCFC
:10250000229880302AE007200EE0012008E0052014
:102510000BF0BEFC229880300EF0CCFF1D980078A6
:102520000BF0B6FC1CE006200BF0B2FC22988030C9
:102530000EF0C0FF1D9800780CF0AAFC10E0C04619
:10254000584E0110F4F30320346C011008200BF0F6
:102550009FFC30460EF0AEFF229882300EF0AAFFAC
:102560000BF072FDF249189809F0ECFE2B7D012B5F
:1025700000D989E10246687D042800D389E11692DA
:102580001791A97D1891032900D386E1B288F588B7
:102590002D04AD183288344676883604B218602689
:1025A0005E4343239B001699CB589B19182646433C
:1025B00098191899CB00C252C0182B0CC380858083
:1025C000120C428017990868401C086005201D9B6A
:1025D0001871E948129908611F9D687DD871A87D1E
:1025E0009871287D5871A088E1880904081821880D
:1025F0006288120451189960D860239E229B184665
:10260000883031460AF066FB229B0421002800D165
:1026100001212974002864D11D462435186A986662
:10262000DD6618467030A6A97C2211F0E7F8229BDF
:102630000020219908720A460832002008719E6E17
:102640001E675D670020087010369E67DD67169272
:102650001C4680342021204610F02AFE229A802039
:10266000A02805D02918803909781154401CF7E7B3
:1026700000252022FA4B2046294609F0A4FE0246F6
:102680000B461D981892C26120994D738E600B60A5
:1026900008460D304E60212B01D300F0C6FDB588F1
:1026A000202B179004D100202099087320220CE0E1
:1026B000002D00D12BE398B229461C4611F082FC74
:1026C0002246484248412099087365AC2046189933
:1026D0002B4609F0C3FE2298B4300ECC0EC01F9DCD
:1026E000EDE004201F9D7FE102210622E24B1798B6
:1026F00009F088FE012206E002210622DF4B17982E
:1027000009F080FE002209F033FFFFF713FBDC48DD
:10271000FFF70EFB0698059A0499039B029C2C90E8
:1027200029912892259327942D980028229B00D147
:10273000A0E02E990022884201D0024608322D9254
:10274000884200D196E0F3A8F590179EF496079979
:102750006FE0229B0F990025FA95F3A8F990F2A853
:10276000F890F0A8F790F1A8F6901798F5900D98CA
:10277000F490002908D1F4A8189901F0D9FA229B05
:1027800000283AD1249810902B951098C0072AD091
:102790002798002807D0F4A81899169A01F0AAFAE9
:1027A000229B002829D1259C002C0FD0269EB442C4
:1027B0000CD02794603428942594F4A81899169A7C
:1027C00001F098FA229B0028F1D016E0279529986D
:1027D000002807D0F4A818990B9A01F08BFA229BD5
:1027E00000280AD129952B952D98002805D0F4A80A
:1027F0000C9901F09DFA229B00280E990868401C54
:102800003BE027942C900B982990289218982590BB
:10281000109808302B90F3A9F591179EF496304646
:10282000079A169B01F0FEF90128229B22D12498D9
:102830000E9000202B900E98C0070FD027980028EC
:1028400001D1FFF7A5FBF4A80A461699139B01F0E6
:1028500031FA229B01280DD1FFF79AFB00202B9023
:102860002D98002806D00A46F3A93046089B01F0AF
:10287000D9F9229B0A990868401E0860149D95E4C6
:102880002020804AFEF708FD02217F4A18460AF000
:10289000B5FB04217C4A0AF0B1FB03217A4A18985F
:1028A0000AF0ACFB0221794A28460AF0A7FB042172
:1028B000764A20460AF0A2FB0321744A12E1209EC8
:1028C000304610300AF036F9002814D00022199B47
:1028D0001A777268F2611E4603C3229B239801682F
:1028E0001846C03000F0B4FFC4B2022CE7D0032C6D
:1028F0006FD0219920E0307B022400281AD00020DC
:102900000121199B1874726832617161B0611E46B1
:10291000229B239801681846B43000F099FFC4B296
:10292000032C2199169A179B08D10420229B53E06F
:10293000A84E01102199199E169A179B0120187014
:1029400008710870022C19D1107028707D20C00009
:10295000002421460BF08AFF229B9861D9611C98C4
:102960000470239C2168184618301D460BF08AFF1E
:10297000002824D0042029E0F4F303201070F44848
:102980000BF08FFAE0071E9800D1022009F0A4FD99
:102990000BF05AFB01202870F4481E9C21460BF0D6
:1029A00065FF229B9861D9611C980470239C216863
:1029B000184618301D460BF065FF002805D1AC689D
:1029C000E8682B461F9DFEF7CDFF05202B462646C7
:1029D0000CE00320229B2199179A107003200872A3
:1029E000087108700520239E28700320187415981C
:1029F000046923463833204680301C902046A0309E
:102A00001F90207A229421934000C0467844808809
:102A10004000874404005E001C04870117006068C2
:102A20000178002900D175E100216176606159705B
:102A30002068606322463032214610311E91591CB5
:102A4000179117E0204630302090204610301E901D
:102A5000581C1790587803A14000085A400087443A
:102A60004C4701100700F603F6031F001700DF00B4
:102A7000606B209A106038E0784E0110684E0110AB
:102A800040000000446C0110F0500110E0500110B3
:102A9000187BC00720D0587B19900C33256CD5E0EB
:102AA0001F98007800280CD0032818D11C99087FA3
:102AB0000D461C35002808D01D9503285ED0FEF772
:102AC0004EFFE06B226C616C19E0A06CE26C216D32
:102AD0001CE0B0480BF048F9AF48FEF7D9FBAF480F
:102AE0000BF042F930460AF089FA20920121E063A6
:102AF0002364616400221A701F9D2A701A46A06424
:102B0000E264216500231C9D2B771C356065A2655E
:102B1000E165002909D01D950189216600680068DA
:102B2000BFF35F8FA066606602E09D48FEF7B0FBD2
:102B3000A26DE36D9B49009101210BF0BDFE0246A1
:102B40000C462298036E98480090A6AD2846114680
:102B50002246229C09F06CFC20466C300ECD0EC043
:102B600020466C300AF034F8002838D000221C9B34
:102B70001A761960616D091DA167E0673268214608
:102B8000783165AC204600F0F1FE20780228219BC8
:102B900000D199E065A9C00710D04878229D696DE1
:102BA0000968BFF35F8F00220A6001211D9A11702E
:102BB0001F9A11704000022181431DE06699229CFA
:102BC000A06E4018A066226E914201D3012875D1F3
:102BD000606D0068BFF35F8F0021016000E0219B02
:102BE000606EA16E0029A3D001211D9A11701F9A59
:102BF000117000281FD0254619716C480BF051F94F
:102C00002198007909F068FC0BF01EFA002468484E
:102C100021460BF02BFE28646964219804742C462D
:102C20003168204640300BF02DFE219B0028209A71
:102C300042D0052053E019780802401C5D4D256400
:102C4000606419911971002018730C3318930BF0FC
:102C50001BFB296800291A99199B01D000F00DFD72
:102C6000C0B21D9024202C5C284602C0002C06D047
:102C7000306806C828460C300BF05CFD12E029468F
:102C800024312A6AAA1813752A6A531C0022082BB9
:102C900000D01A462A62EB69934201D101220A70E0
:102CA0000BF063FD2868401C28601D980BF016FB94
:102CB000002C0FD120AC1CCC106816E7616D0968A0
:102CC000BFF35F8F08604BE703201D9908701F99C1
:102CD000087003E00120189908700420229C1799BD
:102CE0000870607E00280BD004280ED13168204681
:102CF00020300BF0C7FD002800D1D2E004201AE0FC
:102D000000202076606920615CE0E5695CE0E148D4
:102D10000BF018F8E048E1490BF0A8FD2061616173
:102D2000002020763168204610300BF0ABFD0028E3
:102D3000F0D0032002E0229C6076042020721598D7
:102D40004469207A03A121944000085A4000874436
:102D50007D00000007007E027E020F0099024E03F4
:102D600020686060F7480BF0A7F8A0E020A10700FA
:102D7000204618301990207E02A14000085A4000D9
:102D80008744C04605001D006502CD001A00216978
:102D900094E0C04644500110570000003C59011017
:102DA0005E0000002C4701103C4701106E0000003F
:102DB00040420F00CCF30320256D606DDAE0EA4855
:102DC0000AF0D2FFE94DE5610BF05EFA29680029AF
:102DD00001D000F052FCC0B221902C461A9801C4D8
:102DE0002420285C2E4624362B461433002101284B
:102DF00006D128460C3020930BF0B7FC209B31788D
:102E0000E8692A6A90421B9A00D10A46D1072091AC
:102E100009D000213170421C082A00D01146E96116
:102E20001C5C239E06E0239E306806C820460BF0FB
:102E300081FC00242868401C286021980BF04EFA81
:102E40002098002831D01E9805682878002809D0DD
:102E5000687802280DD0E978A878A20707D406F090
:102E60009AFE06E0C2480BF027F8229CAAE706F07B
:102E700089FEE87A022808D0697B287BE20702D124
:102E800006F089FE01E006F07DFEA879022808D050
:102E9000297AE879620702D406F07DFE01E006F0A7
:102EA00071FE0020229C20768CE7032043E700205F
:102EB00020766168216120461830199061610868A8
:102EC000C00717D08868C9680BF0B8FC0022A94B6E
:102ED000C01A91410AD20120207600226068014682
:102EE0002431223023460C3307C3B1E1606902600C
:102EF000426061692220242808D00A5C1F23134005
:102F000001229A409C4B1A60401CF4E701200025E6
:102F100029460BF0ABFC2822A5542062616231687F
:102F2000204620300BF0AEFC002800D05CE1934836
:102F30000AF0C2FF606925461C3520210022B292AA
:102F400022290FD0022A00D360E1431818245443E9
:102F5000A6AA1351121900231375491CB29A521CC8
:102F6000219CECE7A6A93422284610F06EFFE06C05
:102F700025656065182141431D9100212A461C9555
:102F80001D9888426BD06B18187D00281F911E92E7
:102F9000229313D0032800D041E1187C002814D0DC
:102FA000032800D03EE11C461034587B00282094B2
:102FB00053D0032800D03BE11D7B20E00020187493
:102FC000685858601946103102E0114610315868AF
:102FD000209100219860D96005786E080C20064089
:102FE0006907C90E8840664AB05002248C400BF035
:102FF00017FA8019012149034450229805731F26AE
:10300000284630401D2800D905E1C0005D49081858
:1030100023990A6806CA0BF0B3FB68080C24044025
:103020000BF0FEF900596907C90EC840010706D424
:10303000410704D4810702D4C00700D1B6E01E9A2C
:103040001832032022994873209B187008751F9925
:103050001831239E219C1C9D92E79868BCE70420B0
:103060001999087003202072159884692346243327
:1030700025465035204674302190207E1F932095A0
:103080001694C046784400794000874409E0E01770
:10309000512053006C470110C0BDF0FF3F420F00AC
:1030A00007CC0C3C23460C3307C337480025294680
:1030B0000BF0DCFB206261621F98057131682046CD
:1030C00020300BF0DFFB002831D0032018E32199DA
:1030D000087D0A46143200281D9257D0032800D0DC
:1030E000A9E0087C1031179100285CD0032800D09B
:1030F000A7E0681C1E906878800001A108588746E8
:1031000015310010493200104F320010ED3100101F
:10311000DF360010E06CA064626C092A00D384E002
:10312000216C22918388082A209D60D15EE27AE199
:10313000E5697BE1184615302290587D800002A198
:10314000085887460E0000005D3100103D32001027
:103150004F3200104136001093310010E269236AAB
:10316000E56A1F9EB17DD1E18C440110CCF30320B0
:103170003700000040420F00140000D00F00000094
:10318000F0400140ACEF032080841E00A06AE66A94
:1031900008E2316820463C3009F06CFBC5B2072DCF
:1031A00021D1042063E2206B666B02E201252298A4
:1031B000457320990D700575219C60692221242991
:1031C00007D0425C32402B469340DB4A5360491C97
:1031D000F5E70BF05FF962690023156053609060BA
:1031E000D160239E77E633E2032039E75CE2002BCF
:1031F00000D18CE590B219461593149210F0E2FEBE
:10320000149A159B484248412870F2E1CB48172197
:10321000CB4A0AF043FD1E21CA4A09F0EFFECA4814
:103220000AF0A2FDC9480AF09FFDC948FEF730F830
:10323000C8480AF099FDC8480AF096FDC7480AF048
:1032400093FDC7480AF090FDC6480AF08DFDFEDEEA
:10325000884200D1C3E0E061411CE1606169A16185
:10326000491C616100781F210140012002468A400B
:10327000B1490A60002529460BF0F8FA2822A55426
:10328000206261623168204620300BF0FBFA002892
:103290001A9800D0B5E0451E606820301C901420BC
:1032A0002290002D00D18FE020951C984019857840
:1032B000A6696468A048103800681E90022E00D3EA
:1032C000A5E001201F900BF0E5F87D22D20000233D
:1032D0001D9310F089FEE169421A110453D01F2199
:1032E0000D401F99A9401E9B19404B1E9941B300E8
:1032F000E518229B1E95EB5A7600A619209D76199B
:10330000B67CB1420AD00A2B11D2184696494840E1
:1033100091B2884233D80020C04331E090B283425A
:103320001D9A00D35A1E22981E990A522BE0E06182
:10333000002022991E9A5052219B986902286ED231
:10334000400059680818209C0019817C1F9A514040
:103350008174986902285ED2A11C090202045118E6
:1033600040005A6810180019807C081801F000FB12
:10337000C0B2022807D0F5480AF09EFD03E0581CB1
:103380001E9A22995052219CA06902283BD24000EB
:1033900061680818209D4019807C0128239E0ED169
:1033A0000BF078F81E9062680023204634461F9E7A
:1033B00016602646044653601E989060D16022989D
:1033C000801C22906D1C6CE7E06900781F21014091
:1033D00001208840D9494860E068216938E76420C5
:1033E000002529460BF042FA20616161257631689B
:1033F000204610300BF046FA002800D157E5052092
:1034000031E604202FE60221D14A09F0F7FD02211E
:10341000CB4AFFF767FB0221CB4A09F0EFFD0221FF
:10342000C84A09F0EBFDE0680568E5610AF02CFF89
:103430002968002900D020E15521890026466C1812
:103440001C36C0B2229029461A9801C11E91284606
:1034500014301D90207A0021012804D128460C3018
:103460000BF083F9217A05CC083C90421B9A00D1DD
:103470000A46D1070DD0421C0021202A0B4600D05D
:103480001346236021720A2141431D98445C022C9B
:1034900007D12398006806C81E980BF04BF9022448
:1034A00019E01D9840184179827912025118C279A9
:1034B0001204037A1B069A185118199141788278E0
:1034C00012025118C278120403791B069A18511877
:1034D0001C91407A18902868401C286022980AF0B5
:1034E000FDFE022C2046169C00D1C4E0C00748D047
:1034F0001F9E1899B175002070751C9AE261199B86
:1035000023626569E5623046153022901E950020E1
:10351000F06030611D9030756262A36231730C36C9
:103520001891C8B201251C921993C04678440079BD
:1035300040008744731B686F140000D08F40011057
:103540000441011034640110C8580110F441011005
:103550005D000000E44101104C590110805601103B
:103560005C4701108C470110FFFF00001F994A7350
:103570004B74100E0874100CC873100A887306255B
:103580004CE01F9B189818700020219908751C9812
:10359000E061199820622069A062E6620A4614324E
:1035A0001D92209D206366630A460021117410322B
:1035B000179200215961996132781A7572785A759B
:1035C000143322933A22402A05D0B318373B1B7894
:1035D000A354521CF7E7082269702299216462649F
:1035E000A064E064691C1E918388239E00202870DB
:1035F0000822A6AD2846229908F030FF2046543014
:103600000ECD0EC042E0180C1F998873180A48733B
:10361000032503E0180E1F99487302254E4A3046D1
:10362000294608F0B1FE4D4A3046294608F0ACFE66
:103630001E9AE2632064616421981D990176239E9D
:10364000316820463C3009F015F9C5B2072D0DD080
:10365000229E062D07D042480AF023FC284608F097
:103660003BFF0AF0F1FC01203070DCE603202299D8
:103670000870062044E0042042E02F480AF011FCC4
:1036800008F012FF0AF0E0FC0AF023FC209D20461F
:10369000543009F04FFA002815D00022219B1A73EC
:1036A000A26C22666066A16631682046603000F038
:1036B000CFF8C5B2022DE9D0032D26D103201D99E4
:1036C000179A1E9B17E02878022500281DD000209D
:1036D0000121219A1070A26C6265A165E0653168D4
:1036E0002046543000F0B4F8C5B2032D1D99179A46
:1036F0001E9B0DD104201870032010700870052047
:103700002076FE1F053EB546F0BD1D99179A1E9BFB
:103710000120187010700870022D00D183E60D484A
:103720000AF0BFFB0020E90700D1022008F0D4FE18
:103730000AF08AFC77E6C04658000000140000D06A
:103740009C440110AC440110BC4401106F00000007
:10375000CC44011067000000605601107056011043
:1037600068000000F0B503AF85B00E4604460AF0CD
:103770008BFD03462068002845D10021C84322461E
:1037800001C203927C20205C25467C35012806D1AD
:1037900020460C3004930AF0E8FF049B2978D8B245
:1037A0000490606FA26F904201D1C9071AD00196B0
:1037B00021461431461C0022202E134600D03346E9
:1037C00063672A7003224243885C89184A78120290
:1037D0001018897809044518280A0290E8B20228CE
:1037E000019E04D106CE03980AF0A4FF02252068AA
:1037F000401C206004980AF071FDE8B202990902A9
:10380000081805B0F0BD04480AF04BFB08F04CFE68
:103810000AF01AFC0AF05DFB58000000B0B502AFD8
:103820000446C068002809D025460C35284609F012
:1038300081F9002800D0B0BD002028602068002851
:1038400004D0606800216160A168B0BD0020B0BDF7
:10385000FEB506AF04462020205C002804D00328D3
:1038600066D1E569286811E00DCC0C3C25460C3585
:103870000DC58288934202D9002001264CE082794E
:10388000254618357F201040A061E5610F284BD8F0
:10389000C0002B4A10180B684A6819460AF070FFDE
:1038A000286810283BD2C00028494018802142587F
:1038B000274D681C024202D0032630462CE00192BC
:1038C000029123460C330DCB4188008800F010F99B
:1038D000A069102823D26169294001267503019A45
:1038E00095436918F2038918C000184A1018029A03
:1038F00081500C200FF0C9FCA06910280FD2C00025
:10390000124908186169124A11400D4321218902A8
:103910002943029A8150022020342670FEBD0948B6
:103920001D21094A09F02AFD1021044A09F066FB0D
:1039300001480AF019FAC04674410110844101108F
:103940009CF00320A857011064580110000010508B
:10395000FF030000DCB504AF14460A46014600939D
:10396000002023460AF0A8FFDCBDD4D4F0B503AF95
:1039700085B00C4606462020085C002804D00328A9
:1039800073D1E56928680BE00BCC0C3C25460C355F
:103990000BC5817925461835E5617F200840A06177
:1039A0000F285ED8C0003449081806CA0AF0E8FE9D
:1039B0002868102850D2C000324940188421455848
:1039C000314A501C054203D00220307003233FE0EF
:1039D0002846104062690123049282421A4633D37A
:1039E000039101930296E6682169284B0090049A9E
:1039F000FFF7B0FF02460B467188308800F05CF894
:103A0000A069102828D201214E03AE43E1688988BD
:103A10001D4A11407118C0001A4A1018039D4151E7
:103A20000C200FF032FCA069102815D2C0001549F7
:103A30000818E1688988144A11400E439119491CFD
:103A40004151002200AE49CE706000217170327089
:103A50002034237005B0F0BD08481D21084A09F044
:103A60008DFC1021034A09F0C9FA01480AF07CF9DB
:103A700094410110B44101101CF10320A85701101A
:103A80007458011000001050FF030000A441011001
:103A900080B500AFC0B20C2804D20521090780010F
:103AA000401880BD02481D21024A09F067FCC0464B
:103AB0002057011098570110DCB504AF89B2994224
:103AC0000AD30849009180B20749441810461946A4
:103AD00022460FF0C7FBDCBD04480AF0EDF90AF0FE
:103AE000F8F9C046C4410110000010505300000016
:103AF000E0B502AF89B2994208D30749009180B27C
:103B00000649401819460FF0ADFB8CBD04480AF079
:103B1000D3F90AF0DEF9C046D4410110000010507C
:103B200054000000D0B502AF0446C006400E05495F
:103B30004022425020460AF08BFC0521416020467D
:103B4000D0BDC04604C00140D0B502AF0446FFF767
:103B5000E9FF1F2020400121814006480160E00666
:103B6000400E0549425844231343082293434350CF
:103B70002046D0BD280000D004C00140D0B502AF1F
:103B80000446FFF7CFFF1F2020400121814002485B
:103B90000160C1602046D0BD180000D0FEB506AF60
:103BA00002900126F0040025BC68844208D80093E6
:103BB00001912346A00001214C05201A904203D216
:103BC0002946304603B0F0BD9007FAD11149019C57
:103BD0000868800701D44869FAE701200007101837
:103BE000C8600B610298C00710D01D462046FFF741
:103BF0004FFF0A4901600099416085602107490C27
:103C0000074A8918C16000262146DAE702480AF00F
:103C10003BF8C04608000014D84301100000405093
:103C200029801200FEB506AF144602910090019360
:103C3000029E03CB083B884218D001460831196028
:103C40000DF09EFD054631688A1C0098094B08F06E
:103C5000D9FB2A4608F074FC019B3068801C306058
:103C6000641E601CE5D30024204600E001202146AC
:103C700003B0F0BDC84F0110FEB506AF0C460646B6
:103C80001568019250680290029885420CD0356008
:103C900018357560019805602046314608F099F99D
:103CA000002803D10C46EFE7002000E00120214668
:103CB00003B0F0BDFEB506AF0E4600901D6801933F
:103CC000586802901446029885420FD03560183526
:103CD000756001980560009903C922463346FFF7D5
:103CE000A1FF0A460128EDD0002000E00120214676
:103CF00003B0F0BDFEB506AF0D460090146801920A
:103D0000506802902646029884420BD034461834FC
:103D10002E606C60019804600098294600F008F855
:103D20000028EFD00298301A411E8841FEBDD4D43D
:103D3000F0B503AFFFB098B04122930055AAD21856
:103D40000592066842688468C36804930369079310
:103D5000436906930390806911900B680991486844
:103D60000A9020320892029601941D460A988342D6
:103D700000D187E029460831099810910160306828
:103D8000401E306021688A1C08984C4B08F01BFBD1
:103D9000012900D88AE0017840780002411812A871
:103DA0000DF090FD2068801C20601399A980129A64
:103DB0002A80080CE880100C0F9568800798056829
:103DC00006980468654375D00D920E91002C6AD058
:103DD000049E3088119908180B9039480AF061F850
:103DE00030880DF0A3FB0B9E304629460FF03DFDB9
:103DF0000C904543761B304621460FF036FD0546B4
:103E0000304988476C43341B20462E4EB04731461C
:103E10000C9E304688470AF017F955A8C570847083
:103E20004670052101700598274E06600E98579040
:103E30000D9856900AF028FA316800292AD1C4B2A8
:103E40000023D8433060311D14AD55AA284600F038
:103E5000E8FD3068401C306020460AF03FFA2878C0
:103E60000728029E02D01A480AF026F81199491C28
:103E700003981191816130680028019C109B0F9D6F
:103E800000D072E70A98281A411E8841FE1F053E9D
:103E9000B546F0BD0D480AF004F808F005FB0AF03D
:103EA000D3F80AF016F80B4809F054FE02200B4A2A
:103EB00009F046FA084809F04DFEC046B84F011017
:103EC000230000005DDE0010F4F303205800000022
:103ED00081000000946B0110846B011010570110D9
:103EE000FEB506AF0446407A0194C0467844007996
:103EF0004000874402A6AF3E27006068206001466C
:103F0000F131227A7A4412795200974402654F5F68
:103F10004900022008702068F221002545542068DD
:103F2000F32145542068F02145542468606E243400
:103F3000C600002E60D003CC0969083C8847083EC3
:103F40000834F6E7207C00287ED120680121217406
:103F5000F121002242542468606E2434C500002DF3
:103F60006BD003CCCA680021083C9047083D083458
:103F7000F5E7207C00286AD1206801252574F1210D
:103F8000022242542468606E2434C600002E54D0AD
:103F900003CCCA682946083C9047083E0834F5E738
:103FA00000210246AE32E2602161CFE70020487076
:103FB0002468606E2434C500002D3ED003CCCA694D
:103FC0000021083C9047083D0834F5E700210246EF
:103FD000AE32E2602161D0E701254D702468606E49
:103FE0002434C600002E28D003CCCA692946083CD8
:103FF0009047083E0834F5E701980168086A1031D7
:104000004000081800900098814216D000200291CC
:10401000087001980468606E2434C600002E08D031
:1040200003CC4B6A00222946083C9847083E0834D6
:10403000F4E76D1C0299891CE5E70120019948729B
:10404000FEBD074809F090FE034809F08DFE0348C5
:1040500009F08AFEFEDEC046A458011094580110F3
:104060003C45011000207047002070477047D4D4B1
:10407000F0B503AF9DB015460E4609908520085C4B
:10408000196808911293596811913446E434012853
:104090000E9419D1206818AA002151711171D170A4
:1040A00003239370517010700B21062330460AF0E1
:1040B0000DFD7169B069401F884200D352E131693A
:1040C0000A5C521C0A540E9C07952368082B00D3E7
:1040D0001BE158003246D432002515522168491C94
:1040E0002160994200D81AE110184178491C4170AA
:1040F0003068002800D116E171697068884200D3E9
:1041000016E12D21C90071181391B9680A9131691E
:104110000A5C521C0A540124B069001DB460F060AE
:1041200018AA95715571157103201090D070957073
:1041300055700693137004210723149330460C9195
:104140000AF0C4FC1198010A18AA059191715071E6
:1041500022201071D47095700B9454701020107040
:1041600021213046149B0AF0B1FC3246EB323F204D
:10417000C44320463F3012998B7C0D93098A1491D9
:104180002146002900D1E3E00B46401C091D002810
:10419000F7D0D31840255B5DDB07F2D10496149B62
:1041A000412B00D3C7E01A463F32C0261640139A6F
:1041B00012880F96039293199AB20B9E3603B2425D
:1041C00000D9C2E00B960E9A51184031139A138011
:1041D000149B0B80FF2204320E924A80411E0F294D
:1041E00000D3BAE0C900704A89180B2292060292E5
:1041F000039EB2188A6015A9109A0A720D9ACA71A4
:104200008B800F9A4A800E80802210438871091D8E
:10421000049E30460AF09AFC0A9800283ED04920B5
:10422000800030183F34002D00D1A1E00146641C0D
:104230002D1F001D002CF6D0C979C907F3D1139D9D
:1042400029880F9A0C918A1893B20B998B4200D946
:104250008BE02A80149A02800E994180601E0F28FC
:1042600000D38DE0029B0C9D2B43C0004E490818E3
:10427000C36018A8109901720D9BC371847182806C
:104280000F9A42800580011D30460AF05FFC1998A4
:1042900013901898149010980C90FFE73246503203
:1042A00007CA334648330AF039FD0799059848771D
:1042B000119D0D773E4888613E48C88209204875A7
:1042C000069808750C462034129A9068D268089BAC
:1042D00028C10C6048608A60374A3046083900F0CF
:1042E00089F81399080C099E3082F1811499080C01
:1042F000B08171810C98B07415A831460CC80CC1FE
:104300007461008808801DB0F0BD214809F0C9FD26
:10431000082009F0A3FD09F097FE09F0DAFD1D4A17
:10432000184608F06BFE1C4809F0C6FD09F0D1FDE7
:104330001A4A08F063FE25481C4609F0B2FD2046E3
:104340000DF0F4F809F080FE02E01C4809F0B4FD1D
:104350001F4800901F4818210EE011481D21114AE6
:1043600009F00CF8094A08F049FE144809F0A4FDC8
:1043700013480090134819211CAA134B09F044FC60
:1043800007481D21094A08F0F9FFC046644801109A
:104390005B0000007448011060000000DC66011042
:1043A000C557011044580110000010505458011016
:1043B0000100012221100000CC470110290000005B
:1043C000C8480110AC480110B45601102800000084
:1043D0009C4801108448011070470021016070471B
:1043E00000207047002070470220704770477047D8
:1043F00070477047D0B502AFD023C358082B0AD2FC
:10440000DB00C318D0309024195190335A600168F2
:10441000491C0160D0BD054809F043FD082009F0A2
:104420001DFD09F011FE09F054FDC0465A000000C0
:10443000D0B502AF86B0044600F026FCC00702D11A
:10444000601C06B0D0BD00200490012101910449F8
:1044500000910390042002906846024908F066FE2D
:10446000144901107C490110B0B502AF86B00D4669
:104470000446243000F008FCC00707D1242220465F
:1044800029460FF0E2FC204606B0B0BD00200490A3
:104490000121019104490091039004200290684693
:1044A000024908F043FEC046144901107C4901103E
:1044B000F0B503AF87B00091044601252E028019A4
:1044C00000F0E2FBC00707D12046009932460FF00A
:1044D000BCFC204607B0F0BD0020059002950449C1
:1044E000019104900420039001A8024908F01EFEE7
:1044F000144901107C490110B0B502AF86B00D46D9
:104500000446803000F0C0FBC00707D1802220465F
:1045100029460FF09AFC204606B0B0BD002004905A
:104520000121019104490091039004200290684602
:10453000024908F0FBFDC046144901107C490110F6
:10454000F0B503AF87B01D4616460446083000F0AC
:104550009BFBC00710D126702571300EE070300C27
:10456000A070300A6070280EE071280CA071280A33
:104570006071204607B0F0BD002005900121029136
:104580000449019104900420039001A8024908F015
:10459000CDFDC046144901107C490110F0B503AFB0
:1045A000CBB00446007B002857D16568A168002085
:1045B000A9424ED30122530599424AD808462843BE
:1045C0000005104645D10D2000070068002801D0E5
:1045D00002203EE0481B029009F056FEC0B2039054
:1045E00000200C280BD00521090782015118401C1E
:1045F0000A68520FF5D1CA68D201F9D4F1E7194817
:1046000001680029FCD101200102019106460090B9
:1046100005A804900FF0DBFB1420008818210A88FD
:1046200011499047034631070498019A984745A8D5
:104630000190002600993246049B09F071FE28463D
:1046400002993246019B0FF0E3FC039809F046FE05
:104650000420012121734BB0F0BD014809F084FB17
:104660008C4901101800001443340000F0B503AF6A
:10467000D1B00546007C002800D059E1AB6801228A
:10468000510500208B4200D91FE1EE68C91AB142E2
:1046900000D21AE13146FF31FF20069081430F918D
:1046A0008C1B9C420D9400D31C4669680891110232
:1046B0000D2000070E94002C09920B901091079387
:1046C000059634D011AEFF2230460C460C920FF006
:1046D00035FC0D98211A0E9C0A199C4B30460E464B
:1046E00007F084FE9A4A0092089A23460EF0BAFD1B
:1046F0000B980068002800D0E5E004950598801B21
:104700000D900998040645070520060709F0BCFD31
:10471000C0B20A9000200C2810D081017118401CF2
:104720000A68AA42F7D2CA682242F9D1F3E78A4856
:104730001840FF2B19460F9618D89DE08548016850
:104740000029FCD111A90D98109A09F029FE0A98A8
:1047500009F0C4FD079B0E9A991A08460C9CA043C9
:104760001043FF29049D099A00D885E00291049521
:1047700055076C1E0899A14209D998420B9C00D993
:10478000D9E02468002C4DD00220049D9DE0984281
:10479000109B069C00D9D2E00E9E89190D910390C2
:1047A000801BA0430E901606214605200407C8432F
:1047B0000A900E9800285BD011A80D991A460FF0A8
:1047C00044FB0B980068002829D10E980A994018DC
:1047D0000E900D98109940180D9009F055FDC0B23B
:1047E0000C9000205B4B0C2809D081016118401C03
:1047F0000A68AA42F7D2CA683242F9D1F3E71868C8
:104800000028FCD111A90F98109A09F0C9FD0C9845
:1048100009F064FD109B0F98C0180F90C9E70220A3
:10482000049D51E00E9BC9180D910390C01A0E9083
:1048300014060520060709F027FDC0B20C900020E1
:104840000C2809D081017118401C0A68AA42F7D2CD
:10485000CA682242F9D1F3E73E4801680029FCD139
:104860000F980D990E9A09F09BFD0C9809F036FDF2
:10487000049D099A039802990390CCB20420002C5D
:1048800023D00E9011A80F90109E3146069A0FF07B
:1048900055FB334B20460F993246FFF75BF8044631
:1048A0000E46304B03980899079A0AF0E5F902463C
:1048B0000B462D480090204631460EF0D3FC0B9855
:1048C0000068002804D00220099A2A7451B0F0BD73
:1048D0000495059807990818FF3006998843C9433D
:1048E00040180F900998040646070520050709F0AF
:1048F000CBFCC0B20D9000200C2809D081016918B2
:10490000401C0A68B242F7D2CA682242F9D1F3E7E2
:10491000104801680029FCD111A90F98109A09F0DC
:104920003FFD0D9809F0DAFC049D099A0E98CCE73A
:10493000054809F019FA0D4A194608F001FD074A21
:10494000079908F0FDFCC0469C490110684301101E
:10495000784301101800001400FF3F008843011045
:10496000A8430110B8430110C84301109843011037
:10497000F8B504AF044609F087FC0F4E31680029F2
:1049800010D1C5B20022D0433060301D214600F066
:1049900017F804463068401C3060284609F09EFC39
:1049A0002046F8BD054809F07CFA07F07DFD09F0C6
:1049B0004BFB09F08EFAC046ECF1032058000000D2
:1049C000B0B502AF0C467821415C00290CD0210A19
:1049D0008DB2E1B202291DD0002A1ED0126806CA8B
:1049E000083009F0A7FE18E0416F03224A438118FE
:1049F000220A4A740C74220C8A74416F491C2029C3
:104A000000D100214167026F8A4203D1014678310B
:104A100001220A7009F0A9FE0224E0B22902081856
:104A2000B0BDF8B504AF0D460446212040010E1874
:104A3000307A002813D01678072E25D0511C002B71
:104A400007D01868009106C80835284609F072FE9C
:104A50000099601CFF2204320FF0F7F918E04120A2
:104A60008300706858432818103011461A460EF01B
:104A7000C5FE7068401C042800D1002070603168B9
:104A8000814201D101203072284609F06EFE0726CE
:104A90002670F8BD80B500AF7D22D20000230FF054
:104AA000E3F909F0E3FE80BD1F220240012090409F
:104AB000034A002901D01060704750607047C0461B
:104AC000140000D0F0B503AF87B00491044629204C
:104AD000C100605C2246303200280592039111D05B
:104AE000032846D12046103002901078784400798F
:104AF00040008744024144211F002546103529CD3E
:104B0000E2690BE00020107029CC22680C3C2146A1
:104B1000103129C1E2612146103102912146203134
:104B20002DC1A90701D001252AE0990706D000224E
:104B3000A26330E015794CE015790DE041780078FA
:104B4000AD080095FFF72AF80D46059A91710121ED
:104B50000140517166D115712846049908F018F882
:104B6000002801D0032013E02046343007F046FA35
:104B700056E0374809F0F8F8344809F0F5F8FEDE59
:104B8000012005990870029807F078FA012050E09A
:104B9000059908704BE0954242D923464833236477
:104BA000A81A0121FF2800D90802E063850865647E
:104BB000206A666A0691417800780095B218FEF77F
:104BC000EDFF0D46059A917106990840507129D163
:104BD00015712846049907F0DBFF00282FD12046E5
:104BE000343007F00BFA2246383207CA0692666C58
:104BF000A26AE36A174D0095091809F05DFE0A469E
:104C0000B100E36B8B421CD8134900911146069A00
:104C10000EF028FBA06BE16B4218A263E56ABAE7CD
:104C20000425ADE701201070E8B20528ABD10525B9
:104C30000320039961180870284607B0F0BD0420CE
:104C4000A6E7064A184608F07BFBC046E843011079
:104C5000AC490110F8430110184401100844011038
:104C600080B500AF06C801234B400838134304D178
:104C70000021022202604160FEDE024809F01CF9B8
:104C800009F027F952000000B0B502AF054609F05F
:104C9000FBFA2C78C0B2002C01D10121297009F057
:104CA0001DFB601E84412046B0BDD4D4F0B503AFD7
:104CB0005B4EB5445B49694436915B4969442F9129
:104CC0005A49694433915A4969444F915949694451
:104CD0005691594969442691044658485A905B9424
:104CE00000225E925AA85D905C90B5202C905448AA
:104CF000684435902120C10040914D218900611800
:104D00004A910001389020184290232027900001FA
:104D100020184D9037203C900001201844904948BD
:104D2000201855904848201843904848201846902D
:104D30004748201852904748201859904648201854
:104D40004890464820184790DD203990C000201830
:104D50003290434820183E90424820183A904248EA
:104D600020183B9041482018309041482018459029
:104D7000404820182E90404820182B90C7202D9096
:104D80000D20000220182990692040012018289049
:104D90003A4820182A903A4820183190394820186B
:104DA0004190394820183F90384823183848251832
:104DB0003848205C384969443491012631025191C8
:104DC0004C96F102599E50912146E03100285394AF
:104DD000579549923D914B9369D0032801D001F03A
:104DE00084FD03C901434C9C1A4601D000F050FDDC
:104DF0009079911D0028559C3C9101D100F0F0FC68
:104E0000032801D001F08BFD207840007844808891
:104E10004000874443009A0DB40D1B09F808E108CF
:104E20006CEDFFFF141200001C11000018100000B0
:104E3000940B0000C406000014060000106301106B
:104E4000900B00007A0400009C0400008C05000018
:104E5000AC050000CC050000EC0500000C060000CD
:104E6000EC0700000C0800002C08000018090000E6
:104E70004409000064090000380A00004C100000DA
:104E8000EC140000D8160000F81600007A17000095
:104E9000BC170000DC170000C80600004D98006930
:104EA00058904498467900795490539CCBE2E86935
:104EB00037907D4809F000F809F0E6F97B4B597905
:104EC000012901D101F014FD4099539A5118239101
:104ED00014462034114640311E91114660311F9115
:104EE0001146803120911146A0312191C032229289
:104EF000C0B201255D7109F0F1F92A466C496D488F
:104F000008606D4E0025B564F0689043F0607069EC
:104F10000128FCD154923068032290433060B0687D
:104F20000128FCD124921003086009F0A7FA634815
:104F3000634941608160AB21090101616149016000
:104F400061486249C1606249016041680029FCD53D
:104F500058946048549B03607D2181600C24446018
:104F6000519A01680029FCD531214903C16004210F
:104F70004C91416058480360782181604460016829
:104F80000029FCD565210903C1604C9941600220CC
:104F90004E903060B0680428FCD17260832081009C
:104FA0004E481C910160F56070690128FCD1F360E6
:104FB00070690228FCD132615099B16148483B4B7D
:104FC000D860B26271627263316354988004306455
:104FD000F163444809F052FA09F056F9C0B2424967
:104FE000402D06D00022D2434A514B195A60103549
:104FF000F6E709F073F93D480F21016025943C4C18
:10500000549E26604E9820604C98206008201A908C
:1050100020603848509D05600B2009F0E9F9FF2019
:105020001D900002FF303449086025607503314847
:1050300005600D2009F0DCF925603049202008606A
:105040002060259C00212E48184E9C2903D0002268
:105050004250091DF9E72B494022002A03D00023C2
:1050600008C1521EF9E7092141678467549C046412
:105070003046103009F0AFFB60040021402907D012
:10508000214A6A4450525218030C5380091DF5E717
:10509000002140293CD01D4A6A4450525218030C4A
:1050A0005380091DF5E7C0460900000028FB0320D6
:1050B00000C00040BF4DFB003080004000000640B3
:1050C00000009696A5BFFA0000400240701700004D
:1050D000A0BAFA000080024000C002402C800540C7
:1050E00040597307FFFFFF01A0F10320384005403E
:1050F00000E100E080E100E00404005080E200E014
:105100000000115000001050900B0000C806000075
:1051100060ACB949694440254C9520462A460EF0BA
:1051200094FE4034FB49694420462A460EF08DFE29
:1051300009201790FEF708FD25900B20FEF704FDCF
:105140001B900A20FEF71AFD19900C20FEF716FDA1
:10515000189080A8C01CF0491C220EF076FE88A88A
:10516000001DEE493CC93CC0ED4C4E9D2846A04771
:105170002846A0472846A0473046183000241690FD
:1051800022462346FFF7DCF93046213015902246AF
:105190002346FFF7D5F9204609F05AF94560E14862
:1051A0004C9E0660549809F053F94560DD4846600E
:1051B000E1204102DC48C068C60030460EF055FBD5
:1051C000549A310CE12900D3C209D84D2A60E12953
:1051D00003D37F210840401C44086C60D248C0685B
:1051E000E9685491C90722D0E968D14A0A40EA60C7
:1051F0002C686E68CF494C31884201D201F089FB9E
:10520000CD490EF032FB01462004B20210180EF018
:105210002CFB044609F03EF90023224609F0F8FA77
:1052200004460E4609F036F9001BB141FAD3A868CE
:10523000A8605498E8607020A86000262E611C9930
:10524000F531E960BD49169A8A621A9ACA620E63FC
:105250004E63159B8B63CA630E644E6468610121C3
:1052600008050B465491B6490860B64908602420E9
:105270005F21539A11542C20602111543420612154
:1052800011543C205C2111541046243046701046C5
:105290002C304670104634304670104614463C3070
:1052A00046701E994E775A2008774E75592008751A
:1052B0004E735E2008734E715D200871589DAE706C
:1052C000179A2A70AE722A72AE742A74AE762A7653
:1052D0008E760A768E740A748E720A728E700A70D6
:1052E0001F994E773C9808774E73622008734E7171
:1052F0005B2008718E760A76CB744E9888740A7497
:105300008E720A728E700A700720209908760874CF
:10531000087208702199087608740872087022993A
:10532000087608740872087087483D990E604E60D0
:105330008860CE600E612046F43088A9142422468D
:105340000EF083FD10202399087350200C60539CAD
:1053500048608E601D981630201880A91F220EF01C
:1053600074FD4A984E990171817001704198856170
:105370003799C1613F98549901807448201860A9F9
:1053800080220EF062FD12204B9A16500E2016500D
:1053900096711998C0B21899090208183F90908028
:1053A0002598C0B21B99090208183790508024989C
:1053B000C001108057980675901D3C9055208000C4
:1053C0002318624820184E902146E8310020082812
:1053D00005D0504C6C4400252550001DF7E7569829
:1053E000446880684C900025042D07D0494A6A44DF
:1053F00000205053AD1CF7E7900B00005698406812
:1054000000254A9AD5601561D0613F98D8813798B8
:1054100098811C604C9858609D602D20C000539C62
:10542000201858220DF082FF44984671549901715A
:1054300058984D9908614648201882224E990EF0DE
:1054400004FD559805700720800120180521890169
:10545000611828220EF0F9FC254601204E90559C3B
:10546000A0703B4829187F20C000281882220EF027
:10547000ECFC58994D9841614E9860703D20C000F9
:1054800028182D21C900691858220DF04FFF429AA3
:10549000116806204E91215052985899C16159992E
:1054A0000E71549BCB700020887010794C90A072C4
:1054B000881C4A90A01D3F902546589A1E202A50CD
:1054C0000E204E9A2A504E700B704C98A8740128EA
:1054D00001D801F0FBF92E460E361E4808F0E1FC1B
:1054E0001D4C5098A0474C988000A047A87C0CF019
:1054F00011F83068A04708F0A7FD4E9900292DD07B
:10550000080501D001F0F6F9559DA87C000340186C
:1055100029E0C046C8060000EC5B0110F85C0110F1
:1055200041C0001004C0014028FB03202440034078
:10553000FEFCFFFF020E00004E0E0000A4FB032045
:1055400080E200E000E100E040420F00FA160000B7
:1055500076030000110000005DDE00100120400510
:10556000A97C0903411A1A225892A85016242951DD
:10557000FC4808F096FCFC48FC4EB047FC48B0479D
:10558000285908F0BFFE589EA85908F0BBFE00201D
:105590005490F649884708F057FD59980088529969
:1055A0000883A8592C59439D2C606860F148539E8C
:1055B0003018092149010EF00AFC234645985499F8
:1055C00001713146599E0C46B560001D5890304619
:1055D000083054905C9A28464168F3603161014676
:1055E0000831489BD9610021479D6977E249E34B27
:1055F000E318519C20342C602524E4000019286114
:105600006B61A96134460C34DD4D6D44284621465A
:1056100002F06EF92D78082D06D1032058990870F4
:10562000579D4B9A55992BE1D548684446782046BA
:1056300006F053FE0120589908706C426C413440CA
:10564000399880005499085C032802D1081D06F09F
:1056500044FE002C599E1ED0539CCA482118252078
:10566000C5008EA82A460EF0C9F8C74821188A78C6
:105670008DAB9A70205C49780902081818805298FE
:10568000067E01204A990870022E57D10320579DAB
:105690004B9A5599F7E0539DBA4828181E21559A00
:1056A0005458B060F460B9482818B9496944389A28
:1056B0000EF0A4F800203E990870B6482818B049AA
:1056C0006944B54A0EF0C1FB304608305090B568C9
:1056D0003561746101200002308328685890686841
:1056E0005490499E30460DF067FC3E9C606058988F
:1056F000A06033465498E060519820302946083124
:105700003A9A9160D0603B9E737459981830211D6D
:10571000A04A539B9A182523DB00EB183360726074
:10572000B160F0605C9A25460835D8A8294602F099
:10573000F9FAD8980C2860D103209CE04920C000D9
:1057400024188EA920462A460EF058F84498067070
:105750009248539E30188DA903220EF076FB4D9887
:1057600040693F9908600A20559D58942C50344652
:105770009120C0003018D8A9409A0EF03FF80020C0
:10578000469E3071864820187D496944854A0EF04E
:105790005CFB2A46A81D311D4E91509005680E20D5
:1057A000155081482018012109020EF010FB589C69
:1057B000002C00D1FEE0B460F56034600020459913
:1057C0000871081D5490304608304C90499A529BFD
:1057D0002846C03034617561B061F26101F0D0F8E3
:1057E0004198806958903F98467800785490908806
:1057F0003F9050883790539CE0E5D99CD89E28462E
:1058000006F080FD0B2E01D001F04CFC4998329936
:10581000087248600120087059990D6929685891EB
:105820006E680DF0C9FB3E9C60605898A060E66011
:1058300051982030294608313A9A9160D0603B9EB9
:1058400049987074201D5349539A51182522D2004B
:10585000AA1832607160B0603298F0605C9A254698
:105860000835D8A8294602F05DFAD8980C2801D04E
:1058700000F036FC0420559920700420579D4B9A67
:105880004A9B18700320087003203C99087000247C
:105890000E2011580029539B01D001F01BFB4990A9
:1058A0004D9142481E18287DFF2109024E91042186
:1058B0004A91C9435491002859964C9426D0032804
:1058C00001D001F029F8287C002826D03079311D3C
:1058D0005891042839D0032840D1287B2B460C331B
:1058E000002801D100F010FC032801D001F030F8AD
:1058F000287A29460831002801D100F016FF032834
:1059000001D001F030F86C6801F028F91220145829
:10591000162014500020287401E0162014581A256F
:1059200054512348164608F0BCFA705908F096FA0C
:1059300008F08AFB1E2034500020599E3071301D23
:105940005890579D346001F0A0FA307C717C0902B8
:105950000818B17C0904441801F075FA1E20145887
:10596000F0E7C046120000000700000075DE0010DE
:1059700086000000A4040000C8510110490900007D
:10598000C80600009C040000C5050000DC050000FE
:10599000900B0000ED070000C70400007103000039
:1059A00091050000BB0300008C0400009C17000060
:1059B00010000000539C559B2C9840003599081806
:1059C0003A903B48201822903A48201823903A48B1
:1059D00020182490394820185490394820182190D4
:1059E00008465C303E9008467C303790D031359187
:1059F00034987830349049980C2808D0314969445B
:105A000000220A5409188A704A70C01CF4E719462B
:105A10001231012426022C486844589032460DF079
:105A2000EDFE469658988019264969444CC94CC0E9
:105A30004C944E9804702548539A10184921C90077
:105A400051184B2292004E900DF0D8FE0026549C27
:105A500066611F485399081843218A0058990DF030
:105A6000CDFE3B988672068145601A48529948617E
:105A70008861084618304A9014312091204614302D
:105A80003F90402E07D00F48684400218151801973
:105A900041601036F5E70024C02C1FD00E48684442
:105AA00000190849694440220EF0CFF94034F3E769
:105AB0006406000084060000A40600000C07000035
:105AC00098160000900B00000C0F000094040000DA
:105AD000240700006CF20320C8060000FFA86C3009
